{
  "_format": "hh-sol-artifact-1",
  "contractName": "TaedalNFT",
  "sourceName": "contracts/TaedalNFT.sol",
  "abi": [
    {
      "inputs": [],
      "stateMutability": "nonpayable",
      "type": "constructor"
    },
    {
      "inputs": [
        {
          "internalType": "address",
          "name": "sender",
          "type": "address"
        },
        {
          "internalType": "uint256",
          "name": "tokenId",
          "type": "uint256"
        },
        {
          "internalType": "address",
          "name": "owner",
          "type": "address"
        }
      ],
      "name": "ERC721IncorrectOwner",
      "type": "error"
    },
    {
      "inputs": [
        {
          "internalType": "address",
          "name": "operator",
          "type": "address"
        },
        {
          "internalType": "uint256",
          "name": "tokenId",
          "type": "uint256"
        }
      ],
      "name": "ERC721InsufficientApproval",
      "type": "error"
    },
    {
      "inputs": [
        {
          "internalType": "address",
          "name": "approver",
          "type": "address"
        }
      ],
      "name": "ERC721InvalidApprover",
      "type": "error"
    },
    {
      "inputs": [
        {
          "internalType": "address",
          "name": "operator",
          "type": "address"
        }
      ],
      "name": "ERC721InvalidOperator",
      "type": "error"
    },
    {
      "inputs": [
        {
          "internalType": "address",
          "name": "owner",
          "type": "address"
        }
      ],
      "name": "ERC721InvalidOwner",
      "type": "error"
    },
    {
      "inputs": [
        {
          "internalType": "address",
          "name": "receiver",
          "type": "address"
        }
      ],
      "name": "ERC721InvalidReceiver",
      "type": "error"
    },
    {
      "inputs": [
        {
          "internalType": "address",
          "name": "sender",
          "type": "address"
        }
      ],
      "name": "ERC721InvalidSender",
      "type": "error"
    },
    {
      "inputs": [
        {
          "internalType": "uint256",
          "name": "tokenId",
          "type": "uint256"
        }
      ],
      "name": "ERC721NonexistentToken",
      "type": "error"
    },
    {
      "inputs": [
        {
          "internalType": "address",
          "name": "owner",
          "type": "address"
        }
      ],
      "name": "OwnableInvalidOwner",
      "type": "error"
    },
    {
      "inputs": [
        {
          "internalType": "address",
          "name": "account",
          "type": "address"
        }
      ],
      "name": "OwnableUnauthorizedAccount",
      "type": "error"
    },
    {
      "anonymous": false,
      "inputs": [
        {
          "indexed": true,
          "internalType": "address",
          "name": "owner",
          "type": "address"
        },
        {
          "indexed": true,
          "internalType": "address",
          "name": "approved",
          "type": "address"
        },
        {
          "indexed": true,
          "internalType": "uint256",
          "name": "tokenId",
          "type": "uint256"
        }
      ],
      "name": "Approval",
      "type": "event"
    },
    {
      "anonymous": false,
      "inputs": [
        {
          "indexed": true,
          "internalType": "address",
          "name": "owner",
          "type": "address"
        },
        {
          "indexed": true,
          "internalType": "address",
          "name": "operator",
          "type": "address"
        },
        {
          "indexed": false,
          "internalType": "bool",
          "name": "approved",
          "type": "bool"
        }
      ],
      "name": "ApprovalForAll",
      "type": "event"
    },
    {
      "anonymous": false,
      "inputs": [
        {
          "indexed": false,
          "internalType": "uint256",
          "name": "_fromTokenId",
          "type": "uint256"
        },
        {
          "indexed": false,
          "internalType": "uint256",
          "name": "_toTokenId",
          "type": "uint256"
        }
      ],
      "name": "BatchMetadataUpdate",
      "type": "event"
    },
    {
      "anonymous": false,
      "inputs": [
        {
          "indexed": false,
          "internalType": "uint256",
          "name": "_tokenId",
          "type": "uint256"
        }
      ],
      "name": "MetadataUpdate",
      "type": "event"
    },
    {
      "anonymous": false,
      "inputs": [
        {
          "indexed": true,
          "internalType": "address",
          "name": "previousOwner",
          "type": "address"
        },
        {
          "indexed": true,
          "internalType": "address",
          "name": "newOwner",
          "type": "address"
        }
      ],
      "name": "OwnershipTransferred",
      "type": "event"
    },
    {
      "anonymous": false,
      "inputs": [
        {
          "indexed": true,
          "internalType": "address",
          "name": "from",
          "type": "address"
        },
        {
          "indexed": true,
          "internalType": "address",
          "name": "to",
          "type": "address"
        },
        {
          "indexed": true,
          "internalType": "uint256",
          "name": "tokenId",
          "type": "uint256"
        }
      ],
      "name": "Transfer",
      "type": "event"
    },
    {
      "inputs": [
        {
          "internalType": "address",
          "name": "to",
          "type": "address"
        },
        {
          "internalType": "uint256",
          "name": "tokenId",
          "type": "uint256"
        }
      ],
      "name": "approve",
      "outputs": [],
      "stateMutability": "nonpayable",
      "type": "function"
    },
    {
      "inputs": [
        {
          "internalType": "address",
          "name": "owner",
          "type": "address"
        }
      ],
      "name": "balanceOf",
      "outputs": [
        {
          "internalType": "uint256",
          "name": "",
          "type": "uint256"
        }
      ],
      "stateMutability": "view",
      "type": "function"
    },
    {
      "inputs": [],
      "name": "currentId",
      "outputs": [
        {
          "internalType": "uint256",
          "name": "",
          "type": "uint256"
        }
      ],
      "stateMutability": "view",
      "type": "function"
    },
    {
      "inputs": [
        {
          "internalType": "uint256",
          "name": "tokenId",
          "type": "uint256"
        }
      ],
      "name": "getApproved",
      "outputs": [
        {
          "internalType": "address",
          "name": "",
          "type": "address"
        }
      ],
      "stateMutability": "view",
      "type": "function"
    },
    {
      "inputs": [
        {
          "internalType": "address",
          "name": "owner",
          "type": "address"
        },
        {
          "internalType": "address",
          "name": "operator",
          "type": "address"
        }
      ],
      "name": "isApprovedForAll",
      "outputs": [
        {
          "internalType": "bool",
          "name": "",
          "type": "bool"
        }
      ],
      "stateMutability": "view",
      "type": "function"
    },
    {
      "inputs": [],
      "name": "name",
      "outputs": [
        {
          "internalType": "string",
          "name": "",
          "type": "string"
        }
      ],
      "stateMutability": "view",
      "type": "function"
    },
    {
      "inputs": [],
      "name": "owner",
      "outputs": [
        {
          "internalType": "address",
          "name": "",
          "type": "address"
        }
      ],
      "stateMutability": "view",
      "type": "function"
    },
    {
      "inputs": [
        {
          "internalType": "uint256",
          "name": "tokenId",
          "type": "uint256"
        }
      ],
      "name": "ownerOf",
      "outputs": [
        {
          "internalType": "address",
          "name": "",
          "type": "address"
        }
      ],
      "stateMutability": "view",
      "type": "function"
    },
    {
      "inputs": [
        {
          "internalType": "string",
          "name": "uri",
          "type": "string"
        }
      ],
      "name": "publicMint",
      "outputs": [],
      "stateMutability": "nonpayable",
      "type": "function"
    },
    {
      "inputs": [],
      "name": "renounceOwnership",
      "outputs": [],
      "stateMutability": "nonpayable",
      "type": "function"
    },
    {
      "inputs": [
        {
          "internalType": "address",
          "name": "to",
          "type": "address"
        },
        {
          "internalType": "string",
          "name": "uri",
          "type": "string"
        }
      ],
      "name": "safeMint",
      "outputs": [],
      "stateMutability": "nonpayable",
      "type": "function"
    },
    {
      "inputs": [
        {
          "internalType": "address",
          "name": "from",
          "type": "address"
        },
        {
          "internalType": "address",
          "name": "to",
          "type": "address"
        },
        {
          "internalType": "uint256",
          "name": "tokenId",
          "type": "uint256"
        }
      ],
      "name": "safeTransferFrom",
      "outputs": [],
      "stateMutability": "nonpayable",
      "type": "function"
    },
    {
      "inputs": [
        {
          "internalType": "address",
          "name": "from",
          "type": "address"
        },
        {
          "internalType": "address",
          "name": "to",
          "type": "address"
        },
        {
          "internalType": "uint256",
          "name": "tokenId",
          "type": "uint256"
        },
        {
          "internalType": "bytes",
          "name": "data",
          "type": "bytes"
        }
      ],
      "name": "safeTransferFrom",
      "outputs": [],
      "stateMutability": "nonpayable",
      "type": "function"
    },
    {
      "inputs": [
        {
          "internalType": "address",
          "name": "operator",
          "type": "address"
        },
        {
          "internalType": "bool",
          "name": "approved",
          "type": "bool"
        }
      ],
      "name": "setApprovalForAll",
      "outputs": [],
      "stateMutability": "nonpayable",
      "type": "function"
    },
    {
      "inputs": [
        {
          "internalType": "bytes4",
          "name": "interfaceId",
          "type": "bytes4"
        }
      ],
      "name": "supportsInterface",
      "outputs": [
        {
          "internalType": "bool",
          "name": "",
          "type": "bool"
        }
      ],
      "stateMutability": "view",
      "type": "function"
    },
    {
      "inputs": [],
      "name": "symbol",
      "outputs": [
        {
          "internalType": "string",
          "name": "",
          "type": "string"
        }
      ],
      "stateMutability": "view",
      "type": "function"
    },
    {
      "inputs": [
        {
          "internalType": "uint256",
          "name": "tokenId",
          "type": "uint256"
        }
      ],
      "name": "tokenURI",
      "outputs": [
        {
          "internalType": "string",
          "name": "",
          "type": "string"
        }
      ],
      "stateMutability": "view",
      "type": "function"
    },
    {
      "inputs": [
        {
          "internalType": "address",
          "name": "from",
          "type": "address"
        },
        {
          "internalType": "address",
          "name": "to",
          "type": "address"
        },
        {
          "internalType": "uint256",
          "name": "tokenId",
          "type": "uint256"
        }
      ],
      "name": "transferFrom",
      "outputs": [],
      "stateMutability": "nonpayable",
      "type": "function"
    },
    {
      "inputs": [
        {
          "internalType": "address",
          "name": "newOwner",
          "type": "address"
        }
      ],
      "name": "transferOwnership",
      "outputs": [],
      "stateMutability": "nonpayable",
      "type": "function"
    }
  ],
  "bytecode": "0x60806040523480156200001157600080fd5b50336040518060400160405280600681526020016515185959185b60d21b8152506040518060400160405280600681526020016515105151105360d21b8152508160009081620000629190620001ac565b506001620000718282620001ac565b5050506001600160a01b038116620000a357604051631e4fbdf760e01b81526000600482015260240160405180910390fd5b620000ae81620000b5565b5062000278565b600780546001600160a01b038381166001600160a01b0319831681179093556040519116919082907f8be0079c531659141344cd1fd0a4f28419497f9722a3daafe3b4186f6b6457e090600090a35050565b634e487b7160e01b600052604160045260246000fd5b600181811c908216806200013257607f821691505b6020821081036200015357634e487b7160e01b600052602260045260246000fd5b50919050565b601f821115620001a757600081815260208120601f850160051c81016020861015620001825750805b601f850160051c820191505b81811015620001a3578281556001016200018e565b5050505b505050565b81516001600160401b03811115620001c857620001c862000107565b620001e081620001d984546200011d565b8462000159565b602080601f831160018114620002185760008415620001ff5750858301515b600019600386901b1c1916600185901b178555620001a3565b600085815260208120601f198616915b82811015620002495788860151825594840194600190910190840162000228565b5085821015620002685787850151600019600388901b60f8161c191681555b5050505050600190811b01905550565b61149180620002886000396000f3fe608060405234801561001057600080fd5b50600436106101215760003560e01c80638da5cb5b116100ad578063c87b56dd11610071578063c87b56dd14610257578063d204c45e1461026a578063e00dd1611461027d578063e985e9c514610285578063f2fde38b1461029857600080fd5b80638da5cb5b1461020557806395d89b4114610216578063a22cb4651461021e578063b3d7acf914610231578063b88d4fde1461024457600080fd5b806323b872dd116100f457806323b872dd146101a357806342842e0e146101b65780636352211e146101c957806370a08231146101dc578063715018a6146101fd57600080fd5b806301ffc9a71461012657806306fdde031461014e578063081812fc14610163578063095ea7b31461018e575b600080fd5b610139610134366004610f42565b6102ab565b60405190151581526020015b60405180910390f35b6101566102d6565b6040516101459190610faf565b610176610171366004610fc2565b610368565b6040516001600160a01b039091168152602001610145565b6101a161019c366004610ff7565b610391565b005b6101a16101b1366004611021565b6103a0565b6101a16101c4366004611021565b610430565b6101766101d7366004610fc2565b610450565b6101ef6101ea36600461105d565b61045b565b604051908152602001610145565b6101a16104a3565b6007546001600160a01b0316610176565b6101566104b7565b6101a161022c366004611078565b6104c6565b6101a161023f366004611160565b6104d1565b6101a1610252366004611195565b6104fa565b610156610265366004610fc2565b610512565b6101a1610278366004611211565b610623565b6008546101ef565b61013961029336600461125f565b610654565b6101a16102a636600461105d565b610682565b60006001600160e01b03198216632483248360e11b14806102d057506102d0826106c0565b92915050565b6060600080546102e590611292565b80601f016020809104026020016040519081016040528092919081815260200182805461031190611292565b801561035e5780601f106103335761010080835404028352916020019161035e565b820191906000526020600020905b81548152906001019060200180831161034157829003601f168201915b5050505050905090565b600061037382610710565b506000828152600460205260409020546001600160a01b03166102d0565b61039c828233610749565b5050565b6001600160a01b0382166103cf57604051633250574960e11b8152600060048201526024015b60405180910390fd5b60006103dc838333610756565b9050836001600160a01b0316816001600160a01b03161461042a576040516364283d7b60e01b81526001600160a01b03808616600483015260248201849052821660448201526064016103c6565b50505050565b61044b838383604051806020016040528060008152506104fa565b505050565b60006102d082610710565b60006001600160a01b038216610487576040516322718ad960e21b8152600060048201526024016103c6565b506001600160a01b031660009081526003602052604090205490565b6104ab61084f565b6104b5600061087c565b565b6060600180546102e590611292565b61039c3383836108ce565b60006104e4600880546001019081905590565b90506104f0338261096d565b61039c8183610987565b6105058484846103a0565b61042a33858585856109d7565b606061051d82610710565b506000828152600660205260408120805461053790611292565b80601f016020809104026020016040519081016040528092919081815260200182805461056390611292565b80156105b05780601f10610585576101008083540402835291602001916105b0565b820191906000526020600020905b81548152906001019060200180831161059357829003601f168201915b5050505050905060006105ce60408051602081019091526000815290565b905080516000036105e0575092915050565b8151156106125780826040516020016105fa9291906112cc565b60405160208183030381529060405292505050919050565b61061b84610b02565b949350505050565b61062b61084f565b600061063e600880546001019081905590565b905061064a838261096d565b61044b8183610987565b6001600160a01b03918216600090815260056020908152604080832093909416825291909152205460ff1690565b61068a61084f565b6001600160a01b0381166106b457604051631e4fbdf760e01b8152600060048201526024016103c6565b6106bd8161087c565b50565b60006001600160e01b031982166380ac58cd60e01b14806106f157506001600160e01b03198216635b5e139f60e01b145b806102d057506301ffc9a760e01b6001600160e01b03198316146102d0565b6000818152600260205260408120546001600160a01b0316806102d057604051637e27328960e01b8152600481018490526024016103c6565b61044b8383836001610b77565b6000828152600260205260408120546001600160a01b039081169083161561078357610783818486610c7d565b6001600160a01b038116156107c1576107a0600085600080610b77565b6001600160a01b038116600090815260036020526040902080546000190190555b6001600160a01b038516156107f0576001600160a01b0385166000908152600360205260409020805460010190555b60008481526002602052604080822080546001600160a01b0319166001600160a01b0389811691821790925591518793918516917fddf252ad1be2c89b69c2b068fc378daa952ba7f163c4a11628f55a4df523b3ef91a4949350505050565b6007546001600160a01b031633146104b55760405163118cdaa760e01b81523360048201526024016103c6565b600780546001600160a01b038381166001600160a01b0319831681179093556040519116919082907f8be0079c531659141344cd1fd0a4f28419497f9722a3daafe3b4186f6b6457e090600090a35050565b6001600160a01b03821661090057604051630b61174360e31b81526001600160a01b03831660048201526024016103c6565b6001600160a01b03838116600081815260056020908152604080832094871680845294825291829020805460ff191686151590811790915591519182527f17307eab39ab6107e8899845ad3d59bd9653f200f220920489ca2b5937696c31910160405180910390a3505050565b61039c828260405180602001604052806000815250610ce1565b600082815260066020526040902061099f8282611341565b506040518281527ff8e1a15aba9398e019f0b49df1a4fde98ee17ae345cb5f6b5e2c27f5033e8ce79060200160405180910390a15050565b6001600160a01b0383163b15610afb57604051630a85bd0160e11b81526001600160a01b0384169063150b7a0290610a19908890889087908790600401611401565b6020604051808303816000875af1925050508015610a54575060408051601f3d908101601f19168201909252610a519181019061143e565b60015b610abd573d808015610a82576040519150601f19603f3d011682016040523d82523d6000602084013e610a87565b606091505b508051600003610ab557604051633250574960e11b81526001600160a01b03851660048201526024016103c6565b805160208201fd5b6001600160e01b03198116630a85bd0160e11b14610af957604051633250574960e11b81526001600160a01b03851660048201526024016103c6565b505b5050505050565b6060610b0d82610710565b506000610b2560408051602081019091526000815290565b90506000815111610b455760405180602001604052806000815250610b70565b80610b4f84610cf9565b604051602001610b609291906112cc565b6040516020818303038152906040525b9392505050565b8080610b8b57506001600160a01b03821615155b15610c4d576000610b9b84610710565b90506001600160a01b03831615801590610bc75750826001600160a01b0316816001600160a01b031614155b8015610bda5750610bd88184610654565b155b15610c035760405163a9fbf51f60e01b81526001600160a01b03841660048201526024016103c6565b8115610c4b5783856001600160a01b0316826001600160a01b03167f8c5be1e5ebec7d5bd14f71427d1e84f3dd0314c0f7b2291e5b200ac8c7c3b92560405160405180910390a45b505b5050600090815260046020526040902080546001600160a01b0319166001600160a01b0392909216919091179055565b610c88838383610d8c565b61044b576001600160a01b038316610cb657604051637e27328960e01b8152600481018290526024016103c6565b60405163177e802f60e01b81526001600160a01b0383166004820152602481018290526044016103c6565b610ceb8383610def565b61044b3360008585856109d7565b60606000610d0683610e54565b600101905060008167ffffffffffffffff811115610d2657610d266110b4565b6040519080825280601f01601f191660200182016040528015610d50576020820181803683370190505b5090508181016020015b600019016f181899199a1a9b1b9c1cb0b131b232b360811b600a86061a8153600a8504945084610d5a57509392505050565b60006001600160a01b0383161580159061061b5750826001600160a01b0316846001600160a01b03161480610dc65750610dc68484610654565b8061061b5750506000908152600460205260409020546001600160a01b03908116911614919050565b6001600160a01b038216610e1957604051633250574960e11b8152600060048201526024016103c6565b6000610e2783836000610756565b90506001600160a01b0381161561044b576040516339e3563760e11b8152600060048201526024016103c6565b60008072184f03e93ff9f4daa797ed6e38ed64bf6a1f0160401b8310610e935772184f03e93ff9f4daa797ed6e38ed64bf6a1f0160401b830492506040015b6d04ee2d6d415b85acef81000000008310610ebf576d04ee2d6d415b85acef8100000000830492506020015b662386f26fc100008310610edd57662386f26fc10000830492506010015b6305f5e1008310610ef5576305f5e100830492506008015b6127108310610f0957612710830492506004015b60648310610f1b576064830492506002015b600a83106102d05760010192915050565b6001600160e01b0319811681146106bd57600080fd5b600060208284031215610f5457600080fd5b8135610b7081610f2c565b60005b83811015610f7a578181015183820152602001610f62565b50506000910152565b60008151808452610f9b816020860160208601610f5f565b601f01601f19169290920160200192915050565b602081526000610b706020830184610f83565b600060208284031215610fd457600080fd5b5035919050565b80356001600160a01b0381168114610ff257600080fd5b919050565b6000806040838503121561100a57600080fd5b61101383610fdb565b946020939093013593505050565b60008060006060848603121561103657600080fd5b61103f84610fdb565b925061104d60208501610fdb565b9150604084013590509250925092565b60006020828403121561106f57600080fd5b610b7082610fdb565b6000806040838503121561108b57600080fd5b61109483610fdb565b9150602083013580151581146110a957600080fd5b809150509250929050565b634e487b7160e01b600052604160045260246000fd5b600067ffffffffffffffff808411156110e5576110e56110b4565b604051601f8501601f19908116603f0116810190828211818310171561110d5761110d6110b4565b8160405280935085815286868601111561112657600080fd5b858560208301376000602087830101525050509392505050565b600082601f83011261115157600080fd5b610b70838335602085016110ca565b60006020828403121561117257600080fd5b813567ffffffffffffffff81111561118957600080fd5b61061b84828501611140565b600080600080608085870312156111ab57600080fd5b6111b485610fdb565b93506111c260208601610fdb565b925060408501359150606085013567ffffffffffffffff8111156111e557600080fd5b8501601f810187136111f657600080fd5b611205878235602084016110ca565b91505092959194509250565b6000806040838503121561122457600080fd5b61122d83610fdb565b9150602083013567ffffffffffffffff81111561124957600080fd5b61125585828601611140565b9150509250929050565b6000806040838503121561127257600080fd5b61127b83610fdb565b915061128960208401610fdb565b90509250929050565b600181811c908216806112a657607f821691505b6020821081036112c657634e487b7160e01b600052602260045260246000fd5b50919050565b600083516112de818460208801610f5f565b8351908301906112f2818360208801610f5f565b01949350505050565b601f82111561044b57600081815260208120601f850160051c810160208610156113225750805b601f850160051c820191505b81811015610af95782815560010161132e565b815167ffffffffffffffff81111561135b5761135b6110b4565b61136f816113698454611292565b846112fb565b602080601f8311600181146113a4576000841561138c5750858301515b600019600386901b1c1916600185901b178555610af9565b600085815260208120601f198616915b828110156113d3578886015182559484019460019091019084016113b4565b50858210156113f15787850151600019600388901b60f8161c191681555b5050505050600190811b01905550565b6001600160a01b038581168252841660208201526040810183905260806060820181905260009061143490830184610f83565b9695505050505050565b60006020828403121561145057600080fd5b8151610b7081610f2c56fea2646970667358221220d20aac615ddb8c15184ab854dd7fc090554b6132ad8b227863a372ea6425229064736f6c63430008140033",
  "linkReferences": {},
  "deployedLinkReferences": {}
}